:100000000210FD02008653EFFE323202001253EF5F
:10001000FD323202000A53EFFB323202001A53EF74
:02002000FE32AE
:100023000212AA90020FE0FCA3E0FDED1D70011C7B
:1000330014AA044C70F5EF1F70011E144E70E422D5
:100043000214D8C2A71214B6AF051214B6D2A7224F
:0700530002000653EFFD322D
:06005B0002000EC2AF22FC
:1000630002001E44020B0000000042020F00004287
:0F007300021100004402130000000000D2AF226F
:06008300020016C2CA32A1
:03008B000214FA62
:0300930002151C37
:03009B000200560A
:1000A300021412020467E86480F8E933E83360114C
:1000B3000460F0ED33EC337009E8FCE9FDEAFEEB94
:1000C300FF220460DED3EB9FEA9EE99DE8C2E78C42
:1000D300F0C2F795F0400CE8CCF8E9CDF9EACEFA96
:1000E300EBCFFB12043285D0F05804700320D5B354
:1000F300E80470075002B2D502047192D5EC046093
:10010300F7E4CCC0E0C398F8603B94186008400D56
:10011300D0E0FB020449E4FBFAC9FC8028E830E4A0
:1001230006E4C9FBE4CAFCE830E305E4C9CACBFC36
:10013300E854076010F8C3E913F9EA13FAEB13FB69
:10014300EC13FCD8F130F52FC3E49CFCEF9BFFEEDE
:100153009AFEED99FDD0E0FBEF4E4D4C701222DB81
:100163000302046EEC2CFCEF33FFEE33FEED33FDA4
:10017300ED30E7EB020449EF2BFFEE3AFEED39FDDC
:10018300D0E0FB50130BBB0003020471ED13FDEE33
:1001930013FEEF13FFEC13FC020449EC4D6011E86E
:1001A300497017ED33EC3304600DE4FCFFFEFD22D0
:1001B300E933E8330470F802046712043258046028
:1001C30009E4CC2481500628500902047128400315
:1001D30002046EC0E0EB4A7044B98006D0E0FB0233
:1001E300045DEF4E701CBD8008EBFFEAFEE9FD8065
:1001F300EBE98DF0A4FEE5F0020287E9CDF9EAFE12
:10020300EBFFEF89F0A4FCE5F0CE89F0A42EFFE428
:1002130035F0CD89F0A42DFEE435F08067EF4E7004
:1002230005BD80D780C3EF8BF0A4ACF0EE8BF0A4B8
:100233002CFCE435F0F8EF8AF0A42CE5F038FCE46C
:1002430033CB8DF0A42CFCE5F03BF8EE8AF0A42C24
:10025300FCE5F038F8E433CF89F0A42CFCE5F03862
:10026300CF3400CE89F0A42FFFE5F03EFEE433C97E
:100273008DF0A42EFEE5F039CD8AF0A42FFFE5F032
:100283003EFEE43DFD33D0E0FB50070BBB000F0205
:100293000471EC2CFCEF33FFEE33FEED33FD02046F
:1002A30049020471EC5D046005E85904700302041B
:1002B30067120432580460F6EC4860F2EC7004FDF7
:1002C300FEFF22C860DB2481C85009C39860025036
:1002D3000602046E9850CAF582E9294B4A7005ABB1
:1002E3008202045D75F0007C1A7880C3EF9BEE9A5E
:1002F300ED99400DC3EF9BFFEE9AFEED99FDE842A9
:10030300F0DC23ACF0D0E0FFD0E0FED0E0FDAB8228
:1003130020E7101BEB60BAEC2CFCEF33FFEE33FE4F
:10032300ED33FD020449E803F830E705C0F075F04A
:1003330000EF2FFFEE33FEED33FD40B830E7C28010
:10034300AA74F8CC6480CCC86480C8F58204604F7A
:10035300C3EB9FF5F0EA9E42F0E99D42F0E89C452D
:10036300F0603C501DE5825FFFE582D313CB5BCB8E
:10037300F42B5582FB50280ABA002409B90020083F
:10038300801DE5825BFBE582D313CF5FCFF4C313FC
:100393002F5582FF50090EBE00050DBD00010CC391
:1003A300EB9FF5F0EA9E42F0E99D42F0E89C45F0B0
:1003B3006007CC4820E701B3EC2275F020800E756E
:1003C300F010800575F0087D007E007F003392D524
:1003D30030D503120879EC334010EF33FFEE33FED0
:1003E300ED33FDEC33FCD5F0ED22E5F0247EA2D510
:1003F30013CC92E7CDCEFF22EDD2E7CD33EC33928F
:10040300D524814006E4FFFEFDFC22FCE4CFCECDE3
:10041300CC24E0501174FF80EDC3CC13CCCD13CDAD
:10042300CE13CECF13CF0470F030D5DE020879E9B6
:10043300D2E7C933E833F892D5EDD2E7CD33EC33C5
:10044300FC5002B2D522EC30E7100FBF000C0EBEF9
:1004530000080DBD00040BEB6014A2D5EB13FCEDFB
:1004630092E7FD2274FFFCFDFEFF22E480F8A2D593
:1004730074FF13FC7D80E480EFC0E0EFFBEEFAED48
:10048300F9ECF812019ED0E0F5F0EFFBEEFAEDF98E
:10049300ECF81208E1A3A3A3A3E8C0E0E9C0E0EAF3
:1004A300C0E0EBC0E0C0F012019E1208FDA3A3A3BD
:1004B300A31200ADD0F0D0E0FBD0E0FAD0E0F9D049
:1004C300E0F8D5F0D422E709F608DFFA8046E70919
:1004D300F208DFFA803E88828C83E709F0A3DFFA13
:1004E3008032E309F608DFFA8078E309F208DFFADD
:1004F300807088828C83E309F0A3DFFA80648982A9
:100503008A83E0A3F608DFFA805889828A83E0A30E
:10051300F208DFFA804C80D280FA80C680D48069EA
:1005230080F28033801080A680EA809A80A880DAE7
:1005330080E280CA803389828A83ECFAE493A3C879
:10054300C582C8CCC583CCF0A3C8C582C8CCC5833B
:10055300CCDFE9DEE7800D89828A83E493A3F60882
:10056300DFF9ECFAA9F0EDFB2289828A83ECFAE049
:10057300A3C8C582C8CCC583CCF0A3C8C582C8CCE8
:10058300C583CCDFEADEE880DB89828A83E493A338
:10059300F208DFF980CC88F0EF60010E4E60C3886B
:1005A300F0ED2402B4040050B9F582EB2402B40444
:1005B3000050AF232345822390051973C2D530F72A
:1005C30007B2D563F0FF05F030E70CB2D5F404842D
:1005D30063F0FF05F080018430D502F40422BB01EF
:1005E3000689828A83E0225002E722BBFE02E322CD
:1005F30089828A83E49322BB010CE58229F582E593
:10060300833AF583E0225006E92582F8E622BBFE11
:1006130006E92582F8E222E58229F582E5833AF5A7
:1006230083E49322BB010689828A83F0225002F776
:1006330022BBFE01F322F8BB010DE58229F582E519
:10064300833AF583E8F0225006E92582C8F622BBF7
:10065300FE05E92582C8F222EF8DF0A4A8F0CF8C25
:10066300F0A428CE8DF0A42EFE22BC000BBE0029E0
:10067300EF8DF084FFADF022E4CCF875F008EF2F96
:10068300FFEE33FEEC33FCEE9DEC984005FCEE9D53
:10069300FE0FD5F0E9E4CEFD22EDF8F5F0EE84206F
:1006A300D21CFEADF075F008EF2FFFED33FD4007D0
:1006B300985006D5F0F222C398FD0FD5F0EA22C276
:1006C300D5EC30E709B2D5E4C39DFDE49CFCEE30E4
:1006D300E715B2D5E4C39FFFE49EFE12066DC3E4A3
:1006E3009DFDE49CFC800312066D30D507C3E49F97
:1006F300FFE49EFE22C5F0F8A3E028F0C5F0F8E57C
:1007030082158270021583E038F022A3F8E0C5F069
:1007130025F0F0E582158270021583E0C838F0E811
:1007230022BB0110E58229F582E5833AF583E0F5E2
:10073300F0A3E0225009E92582F886F008E622BBFF
:10074300FE0AE92582F8E2F5F008E222E5832AF5BC
:1007530083E993F5F0A3E99322E88FF0A4CC8BF01F
:10076300A42CFCE98EF0A42CFC8AF0EDA42CFCEA6A
:100773008EF0A4CDA8F08BF0A42DCC3825F0FDE9A4
:100783008FF0A42CCD35F0FCEB8EF0A4FEA9F0EB9A
:100793008FF0A4CFC5F02ECD39FEE43CFCEAA42DA6
:1007A300CE35F0FDE43CFC2275F008758200EF2F96
:1007B300FFEE33FECD33CDCC33CCC58233C5829B24
:1007C300ED9AEC99E58298400CF582EE9BFEED9A4A
:1007D300FDEC99FC0FD5F0D6E4CEFBE4CDFAE4CCE6
:1007E300F9A88222B800C1B90059BA002DEC8BF0E8
:1007F30084CFCECDFCE5F0CBF97818EF2FFFEE33A5
:10080300FEED33FDEC33FCEB33FB10D703994004CF
:10081300EB99FB0FD8E5E4F9FA227818EF2FFFEEF6
:1008230033FEED33FDEC33FCC933C910D7059BE927
:100833009A4007EC9BFCE99AF90FD8E0E4C9FAE483
:10084300CCFB2275F010EF2FFFEE33FEED33FDCC22
:1008530033CCC833C810D7079BEC9AE899400AED0C
:100863009BFDEC9AFCE899F80FD5F0DAE4CDFBE4B4
:10087300CCFAE4C8F922C3E49FFFE49EFEE49DFDA5
:10088300E49CFC22EB9FF5F0EA9E42F0E99D42F0E6
:10089300EC6480C864809845F022EB9FF5F0EA9EF3
:1008A30042F0E99D42F0E89C45F022E8600FECC37A
:1008B30013FCED13FDEE13FEEF13FFD8F122BB0182
:1008C3000789828A830209E25005E9F80209D6BB47
:1008D300FE05E9F80209EE89828A830208E1E493BE
:1008E300FC740193FD740293FE740393FF22E0F8FA
:1008F300A3E0F9A3E0FAA3E0FB22E493F8740193E5
:10090300F9740293FA740393FB227401FF3395E0A5
:10091300FEFDFCA3A3A3E0CF2FF0E58215827002B6
:100923001583E0CE3EF0E582158270021583E0CD9B
:100933003DF0E582158270021583E0CC3CF022EC99
:10094300F0A3EDF0A3EEF0A3EFF022A8828583F0ED
:10095300D083D082120965120965120965120965EF
:10096300E473E493A3C583C5F0C583C8C582C8F007
:10097300A3C583C5F0C583C8C582C822F5F0C58267
:10098300A4C582C5F0C583A42583F58322BB0107D3
:1009930089828A83020A035005E9F80209FABBFE39
:1009A30005E9F8020A0C89828A83020A15D083D0EA
:1009B30082F8E4937012740193700DA3A393F874F7
:1009C3000193F5828883E4737402936860EFA3A3B1
:1009D300A380DFE6FC08E6FD08E6FE08E6FF22E06A
:1009E300FCA3E0FDA3E0FEA3E0FF22E2FC08E2FD9E
:1009F30008E2FE08E2FF22E6FB08E6FA08E6F9222F
:100A0300E0FBA3E0FAA3E0F922E2FB08E2FA08E242
:100A1300F922E493FB740193FA740293F92243BA23
:100A230080E59D602E78FAE6FFAD9FC3ED9FFFE45E
:100A33009400FE3395E0FDFC7BE07A287901780091
:100A430012075CE42FFFEE3451FEED3425FDEC3448
:100A530002802B78FBE6FFAD9FC3ED9FFFE494007C
:100A6300FE3395E0FDFCE47B807ABBF9F812075C6A
:100A7300E42FFFEE3436FEED346EFDEC3401FC90D2
:100A830001CF1209429001CFE0FCA3E0FDA3E0FEF9
:100A9300A3E0FFC00790FE01E0FBE4FAF9F8D007FA
:100AA3001207E79001CF1209427FC07EF67D577C83
:100AB300009001CFE0F8A3E0F9A3E0FAA3E0FBC3C1
:100AC30012089D50097F007E607D547C00227FC008
:100AD3007E267D827C009001CFE0F8A3E0F9A3E0BD
:100AE300FAA3E0FBC312089D50097F807E8D7D5BD6
:100AF3007C00227F807EED7DAF7C009001CFE0F80B
:100B0300A3E0F9A3E0FAA3E0FBC312089D50097F19
:100B1300007EC07DA87C00227F807E2D7DE87C0046
:100B23009001CFE0F8A3E0F9A3E0FAA3E0FBC3123E
:100B3300089D50097F007E1B7DB77C00227F807E4D
:100B4300367D257C019001CFE0F8A3E0F9A3E0FA1C
:100B5300A3E0FBC312089D50097F007E407D197CF2
:100B630001227F807E567D417C019001CFE0F8A376
:100B7300E0F9A3E0FAA3E0FBC312089D50097F004C
:100B83007E2D7D317C01227F007EDB7D5F7C0190A9
:100B930001CFE0F8A3E0F9A3E0FAA3E0FBC3120856
:100BA3009D50097F007E807D517C01227F607E19EC
:100BB3007D857C019001CFE0F8A3E0F9A3E0FAA3DF
:100BC300E0FBC312089D50097F007E367D6E7C01D9
:100BD300227F207EE07DB27C019001CFE0F8A3E08C
:100BE300F9A3E0FAA3E0FBC312089D50097FC07E7E
:100BF300FC7D9B7C01227FE07EA67DE07C01900151
:100C0300CFE0F8A3E0F9A3E0FAA3E0FBC312089D49
:100C130050097F807EC37DC97C01227F607E2B7D4E
:100C2300FF7C019001CFE0F8A3E0F9A3E0FAA3E091
:100C3300FBC312089D50097F007E407DFA7C012290
:100C43007F607E477D247C029001CFE0F8A3E0F92A
:100C5300A3E0FAA3E0FBC312089D50097FC07E0EF8
:100C63007D167C02227F007E6D7D4A7C029001CF3F
:100C7300E0F8A3E0F9A3E0FAA3E0FBC312089D5058
:100C8300097F007E807D327C02227F807EDE7D8034
:100C93007C029001CFE0F8A3E0F9A3E0FAA3E0FB24
:100CA300C312089D50097F007E5A7D627C02227F19
:100CB300807EE77DBD7C029001CFE0F8A3E0F9A33D
:100CC300E0FAA3E0FBC312089D5008E4FFFE7DA3F6
:100CD3007C02227F007E6C7DDC7C02229001CFEFC0
:100CE300F0A3EDF0A3EBF0A3E0F8A3E0F9A3E0FA9F
:100CF300A3E0FB90020BE0FCA3E0FDA3E0FEA3E076
:100D0300FF1207E7E47B04FAF9F81207E7C3E49F4D
:100D1300FFE49EAD07FC9001CFE0147003020DB811
:100D2300147003020DFB147003020E5424036003BA
:100D3300020EB19001D6E0FB7A006401701443986F
:100D4300508D8BECF58D438E40D28EE49001CAF02A
:100D53008011EB64024A700B4398508DD7ECF5D6A3
:100D6300438E1553A23F9001D0E0F9FF7E00700837
:100D7300A3E0640170028035EF64024E700D9001B0
:100D8300D1E06403700543A2408022E96404700D3E
:100D93009001D1E06405700543A2808010E96406E8
:100DA300700B9001D1E06407700343A2C0E490018B
:100DB300CAF0D2AC229001D6E06402700B439A10C1
:100DC3008DD7ECF5D6438E1453BAFE9001D0E0FFD5
:100DD3007E0064087008A3E0640970028011EF6468
:100DE3000A4E700B9001D1E0640B700343BA0143C8
:100DF300AF01E49001CBF0229001D6E0FB7A0064CE
:100E030002700D439A108DD7ECF5D6438E148011E2
:100E1300EB64034A700B43AC508DD5ECF5D443D14E
:100E23000A53BAFD9001D0E0FF7E00640C7008A362
:100E3300E0640D70028011EF640E4E700B9001D1CF
:100E4300E0640F700343BA0243AF08E49001CCF0AF
:100E5300229001D6E0FB7A006402700D4384108D6A
:100E6300D7ECF5D6438E148011EB64044A700B4320
:100E730084508DD3ECF5D243D1A053BAFB9001D06B
:100E8300E0FF7E0064107008A3E064117002801616
:100E9300EF64124E70109001D1E064137008F5CA2C
:100EA30075C90443BA0443AF10E49001CDF022BEE8
:100EB3001249253E4CCCCDBEAAAAAB3F8000003ED2
:100EC3007ADBB03EED63383F24BC7D3F490FDBED59
:100ED30033ECC2E7CC339200B4FF13ED547F6003CD
:100EE3000204677FDB7E0F7DC97C3F020FC7C2010F
:100EF300C3947F401E7007EDD2E794904015EFFB3B
:100F0300EEFAEDF9ECF87F007E007D807C3F120263
:100F1300A7D201ED33EC33248430E705E4C0E0804D
:100F23006B04FAEDD2E754F0C333DAFD540734000F
:100F33002323C0E0CCC0E0F8EDC0E0F9EEC0E0FA56
:100F4300EFC0E0FBE41203C7EC24FEFC9001DF12C8
:100F5300094212019E7B007A007980783F1200AD2E
:100F63009001DFE0B2E7CCF0A3E0CDF0A3E0CEF058
:100F7300A3E0CFF0D0E0FBD0E0FAD0E0F9D0E0F886
:100F83001200AD9001DF1208F11202A79001DF12E7
:100F93000942900EB2740312047C9001DF1208F12F
:100FA30012019ED0E0600F24BEF582E4340EF58377
:100FB3001208FD1200AD30010B7BDB7A0F79C97883
:100FC300BF1200ADED33EC336006ECA20092E7FCF8
:100FD300229001D71209429001DBE0F8A3E0F9A3C4
:100FE300E0FAA3E0FB9001D7E0FCA3E0FDA3E0FE61
:100FF300A3E0FF1202A7120ED29001D7120942906A
:1010030001DBE030E7599001D7E0FCA3E0FDA3E06A
:10101300FEA3E0FFECC0E0EDC0E0EEC0E0EFC0E017
:10102300E4FFFEFDFC9001D7E0F8A3E0F9A3E0FAAA
:10103300A3E0FB1203447BDB600250087A0F79497B
:10104300784080067A0F794978C0D0E0FFD0E0FE7F
:10105300D0E0FDD0E0FC1200AD9001D71209429020
:1010630001D7E0FCA3E0FDA3E0FEA3E0FF221213FF
:10107300469001E4E024E2FD9001E3E034FFFC123A
:1010830003C27B007A70798078C51202A79001D3DE
:101093001209429001E8E02450FD9001E7E034009A
:1010A300FC1203C27B007A20798078C51202A790D4
:1010B30001CF1209429001CFE0FCA3E0FDA3E0FEC3
:1010C300A3E0FF9001DB1209429001D3E0FCA3E00F
:1010D300FDA3E0FEA3E0FF120FD47B337A337965DF
:1010E300784212019E900213120942900213E0FC0F
:1010F300A3E0FDA3E0FEA3E0FF22787FE4F6D8FDA2
:10110300758120021144021481E493A3F8E493A3AC
:101113004003F68001F208DFF48029E493A3F85436
:1011230007240CC8C333C4540F4420C8834004F4B9
:1011330056800146F6DFE4800B01020408102040CC
:1011430080900066E47E019360BCA3FF543F30E5CA
:1011530009541FFEE493A360010ECF54C025E06041
:10116300A840B8E493A3FAE493A3F8E493A3C8C50F
:1011730082C8CAC583CAF0A3C8C582C8CAC583CA00
:10118300DFE9DEE780BEE47B107A27F9F890020BF3
:10119300E0FCA3E0FDA3E0FEA3E0FF1207E790025B
:1011A3000FEEF0A3EFF07B407A42790F78009002C4
:1011B3000BE0FCA3E0FDA3E0FEA3E0FF1207E7EFD3
:1011C30024FEFFEE34FF900211F0A3EFF07F007EC8
:1011D3001B7DB77C0090020BE0F8A3E0F9A3E0FAD3
:1011E300A3E0FBD312089D500E900212E004F070AE
:1011F30006900211E004F02243FF10120A2190022C
:101203000B120942121189E4F594F593F592F591C5
:10121300F596F595F5B2F5B1F5B4F5B3F5CAF5C99B
:10122300F5CCF5CBF5E2F5E1F5DEF58EF598F59A1B
:10123300F5ACF584F5A2F5BAF5AFF5899001D212B4
:10124300094E0001C2009001D67402F07B01E4FD57
:10125300FF020CDF12153E7D807F6B1200467F027A
:101263007E001200267B017A0179CF7F6B12155223
:101273009001CFE0644170ED7D017F6B1200461D4C
:101283007F6C1200460D7F1A1200467D077F1912EC
:1012930000467D187F1B1200467D107F1C120046FE
:1012A3007D037F1D020046C0E0C083C082C0D075AD
:1012B300D000C007E59830E1085398FD9001CAE4D7
:1012C300F0E59830E0255398FEAF99EF647F7016F0
:1012D300900217E0FF04F0D3EF94147480948040DD
:1012E3000A75C7608005900217E4F0D007D0D0D00C
:1012F30082D083D0E032E49001CEF0D2A0C2A1C26A
:10130300A0D2A1D2A0C2A1F09001CEE0C394807478
:101313008094805027C2A07D027F0D12145090014B
:10132300CEE025E02401F582E43400F583EEF0A35A
:10133300EFF0D2A09001CEE004F080CC90000074D6
:1013430001F0227B017A0179D79001E17406F07FE5
:101353003B1213D29001D7E0FEA3E0FDEDFF900115
:10136300E3EEF0A3EFF09001D9E0FEA3E0FDEDFF83
:101373009001E5EEF0A3EFF09001DBE0FEA3E0FDCA
:10138300EDFF9001E7EEF0A3EFF022C2D5E830E7DE
:101393000FB2D5E4C39BFBE49AFAE499F9E498F815
:1013A300EC30E717B2D51213C41207E7E4C39BFB73
:1013B300E49AFAE499F9E498F880031207E730D540
:1013C3000DE4C39FFFE49EFEE49DFDE49CFC22909C
:1013D30001DEEBF0A3EAF0A3E9F01214B0E4FDFCA4
:1013E3009001E1E0FFC3ED9FEC9400501FE4FF1276
:1013F30014B69001DEE0FBA3E0FAA3E0F98D828C42
:1014030083EF1206390DBD00010C80D4D2A722C090
:10141300E0C0F0C083C082C0D075D000C000C0015E
:10142300C002C003C004C005C006C00753EFFB12CF
:1014330012F9D007D006D005D004D003D002D001D2
:10144300D000D0D0D082D083D0F0D0E032A90553E1
:10145300BCF0EF42BC43BC40E5BC30E5FB53BCDF12
:10146300AFBDEFFEADBEEDFFE4F5BDF5BEAD01EFE3
:10147300A805088005CEC313CE13D8F9FF221200A6
:101483005E1211FB12007F1212579001D212094E05
:101493000001C2009001D67401F0FBE4FDFF120CC1
:1014A300DF1210717F647E0012002680F4C2A7EF62
:1014B3004480FFE4FEEEC39408748094805015EFDB
:1014C3003392A3EF25E0FFC2A5D2A5A2A4E4334F34
:1014D300FF0E80E122C0E0C083C082E59A30E108BC
:1014E300539AFD9001CBE4F0E59A30E003539AFE62
:1014F300D082D083D0E032C0E0C083C082E5AC307C
:10150300E10853ACFD9001CCE4F0E5AC30E00353CB
:10151300ACFED082D083D0E032C0E0C083C082E58D
:101523008430E1085384FD9001CDE4F0E58430E09C
:10153300035384FED082D083D0E0327B017A0179D9
:10154300D07F751215529001D0E0641270ED221213
:0E15530014B0E4FF1214B6EF120627D2A7223E
:00000001FF
