:1000000002172802007D53EFFE323202001253EF36
:10001000FD323202000A53EFFB323202001A53EF74
:02002000FE32AE
:1000230002195B900298E0FCA3E0FDED1D70011C3A
:1000330014AA044C70F5EF1F70011E144E70E422D5
:10004300021BA2C2A7121B80AF05121B80D2A722DC
:0700530002000653EFFD322D
:06005B0002000EC2AF22FC
:1000630002001E7B017A0279357F75121C0890020B
:0D00730035E0641270ED22D2AF22C2CA3215
:0300830002001662
:03008B00021BC491
:03009300021BE667
:03009B000200560A
:1000A300021B0B020478E86480F8E933E83360113B
:1000B3000460F0ED33EC337009E8FCE9FDEAFEEB94
:1000C300FF220460DED3EB9FEA9EE99DE8C2E78C42
:1000D300F0C2F795F0400CE8CCF8E9CDF9EACEFA96
:1000E300EBCFFB12044385D0F05804700320D5B343
:1000F300E80470075002B2D502048292D5EC046082
:10010300F7E4CCC0E0C398F8603B94186008400D56
:10011300D0E0FB02045AE4FBFAC9FC8028E830E48F
:1001230006E4C9FBE4CAFCE830E305E4C9CACBFC36
:10013300E854076010F8C3E913F9EA13FAEB13FB69
:10014300EC13FCD8F130F52FC3E49CFCEF9BFFEEDE
:100153009AFEED99FDD0E0FBEF4E4D4C701222DB81
:100163000302047FEC2CFCEF33FFEE33FEED33FD93
:10017300ED30E7EB02045AEF2BFFEE3AFEED39FDCB
:10018300D0E0FB50130BBB0003020482ED13FDEE22
:1001930013FEEF13FFEC13FC02045AEC4D6011E85D
:1001A300497017ED33EC3304600DE4FCFFFEFD22D0
:1001B300E933E8330470F802047812044358046006
:1001C30009E4CC2481500628500902048228400304
:1001D30002047FC0E0EB4A7044B98006D0E0FB0222
:1001E300046EEF4E701CBD8008EBFFEAFEE9FD8054
:1001F300EBE98DF0A4FEE5F0020287E9CDF9EAFE12
:10020300EBFFEF89F0A4FCE5F0CE89F0A42EFFE428
:1002130035F0CD89F0A42DFEE435F08067EF4E7004
:1002230005BD80D780C3EF8BF0A4ACF0EE8BF0A4B8
:100233002CFCE435F0F8EF8AF0A42CE5F038FCE46C
:1002430033CB8DF0A42CFCE5F03BF8EE8AF0A42C24
:10025300FCE5F038F8E433CF89F0A42CFCE5F03862
:10026300CF3400CE89F0A42FFFE5F03EFEE433C97E
:100273008DF0A42EFEE5F039CD8AF0A42FFFE5F032
:100283003EFEE43DFD33D0E0FB50070BBB000F0205
:100293000482EC2CFCEF33FFEE33FEED33FD02045E
:1002A3005A020482EC5D046005E8590470030204F9
:1002B30078120443580460F6EC4860F2EC7004FDD5
:1002C300FEFF22C860DB2481C85009C39860025036
:1002D3000602047F9850CAF582E9294B4A7005ABA0
:1002E3008202046E75F0007C1A7880C3EF9BEE9A4D
:1002F300ED99400DC3EF9BFFEE9AFEED99FDE842A9
:10030300F0DC23ACF0D0E0FFD0E0FED0E0FDAB8228
:1003130020E7101BEB60BAEC2CFCEF33FFEE33FE4F
:10032300ED33FD02045AE803F830E705C0F075F039
:1003330000EF2FFFEE33FEED33FD40B830E7C28010
:10034300AA74F8CC6480CCC86480C8F58204604F7A
:10035300C3EB9FF5F0EA9E42F0E99D42F0E89C452D
:10036300F0603C501DE5825FFFE582D313CB5BCB8E
:10037300F42B5582FB50280ABA002409B90020083F
:10038300801DE5825BFBE582D313CF5FCFF4C313FC
:100393002F5582FF50090EBE00050DBD00010CC391
:1003A300EB9FF5F0EA9E42F0E99D42F0E89C45F0B0
:1003B3006007CC4820E701B3EC22ED33EC33600A4D
:1003C300047003BD8004ECB2E7FC2275F020800EBC
:1003D30075F010800575F0087D007E007F00339274
:1003E300D530D50312088AEC334010EF33FFEE33D8
:1003F300FEED33FDEC33FCD5F0ED22E5F0247EA2D7
:10040300D513CC92E7CDCEFF22EDD2E7CD33EC333B
:1004130092D524814006E4FFFEFDFC22FCE4CFCE0E
:10042300CDCC24E0501174FF80EDC3CC13CCCD139D
:10043300CDCE13CECF13CF0470F030D5DE02088AB1
:10044300E9D2E7C933E833F892D5EDD2E7CD33ECFF
:1004530033FC5002B2D522EC30E7100FBF000C0E74
:10046300BE00080DBD00040BEB6014A2D5EB13FC1A
:10047300ED92E7FD2274FFFCFDFEFF22E480F8A26B
:10048300D574FF13FC7D80E480EFC0E0EFFBEEFA50
:10049300EDF9ECF812019ED0E0F5F0EFFBEEFAED8A
:1004A300F9ECF81208F2A3A3A3A3E8C0E0E9C0E0C3
:1004B300EAC0E0EBC0E0C0F012019E12090EA3A354
:1004C300A3A31200ADD0F0D0E0FBD0E0FAD0E0F966
:1004D300D0E0F8D5F0D422E709F608DFFA8046E742
:1004E30009F208DFFA803E88828C83E709F0A3DFF4
:1004F300FA8032E309F608DFFA8078E309F208DFCD
:10050300FA807088828C83E309F0A3DFFA80648920
:10051300828A83E0A3F608DFFA805889828A83E01F
:10052300A3F208DFFA804C80D280FA80C680D480A0
:100533006980F28033801080A680EA809A80A88048
:10054300DA80E280CA803389828A83ECFAE493A357
:10055300C8C582C8CCC583CCF0A3C8C582C8CCC5E6
:1005630083CCDFE9DEE7800D89828A83E493A3F6F7
:1005730008DFF9ECFAA9F0EDFB2289828A83ECFA11
:10058300E0A3C8C582C8CCC583CCF0A3C8C582C8C4
:10059300CCC583CCDFEADEE880DB89828A83E493FF
:1005A300A3F208DFF980CC88F0EF60010E4E60C340
:1005B30088F0ED2402B4040050B9F582EB2402B4B0
:1005C300040050AF232345822390052A73C2D530FC
:1005D300F707B2D563F0FF05F030E70CB2D5F404AA
:1005E3008463F0FF05F080018430D502F40422BB5C
:1005F300010689828A83E0225002E722BBFE02E3DE
:100603002289828A83E49322BB010CE58229F58245
:10061300E5833AF583E0225006E92582F8E622BB1A
:10062300FE06E92582F8E222E58229F582E5833A8E
:10063300F583E49322BB010689828A83F022500268
:10064300F722BBFE01F322F8BB010DE58229F582F7
:10065300E5833AF583E8F0225006E92582C8F622BD
:10066300BBFE05E92582C8F222EF8DF0A4A8F0CFE6
:100673008CF0A428CE8DF0A42EFE22BC000BBE006D
:1006830029EF8DF084FFADF022E4CCF875F008EF8C
:100693002FFFEE33FEEC33FCEE9DEC984005FCEEB1
:1006A3009DFE0FD5F0E9E4CEFD22EDF8F5F0EE84E2
:1006B30020D21CFEADF075F008EF2FFFED33FD40A7
:1006C30007985006D5F0F222C398FD0FD5F0EA2221
:1006D300C2D5EC30E709B2D5E4C39DFDE49CFCEE42
:1006E30030E715B2D5E4C39FFFE49EFE12067EC336
:1006F300E49DFDE49CFC800312067E30D507C3E431
:100703009FFFE49EFE22C5F0F8A3E028F0C5F0F8B1
:10071300E582158270021583E038F022A3F8E0C564
:10072300F025F0F0E582158270021583E0C838F0F9
:10073300E822BB0110E58229F582E5833AF583E0DF
:10074300F5F0A3E0225009E92582F886F008E622B5
:10075300BBFE0AE92582F8E2F5F008E222E5832AE6
:10076300F583E993F5F0A3E99322E88FF0A4CC8B0A
:10077300F0A42CFCE98EF0A42CFC8AF0EDA42CFC54
:10078300EA8EF0A4CDA8F08BF0A42DCC3825F0FD93
:10079300E98FF0A42CCD35F0FCEB8EF0A4FEA9F08C
:1007A300EB8FF0A4CFC5F02ECD39FEE43CFCEAA4D8
:1007B3002DCE35F0FDE43CFC2275F008758200EF88
:1007C3002FFFEE33FECD33CDCC33CCC58233C58280
:1007D3009BED9AEC99E58298400CF582EE9BFEED39
:1007E3009AFDEC99FC0FD5F0D6E4CEFBE4CDFAE408
:1007F300CCF9A88222B800C1B90059BA002DEC8BFC
:10080300F084CFCECDFCE5F0CBF97818EF2FFFEED7
:1008130033FEED33FDEC33FCEB33FB10D703994090
:1008230004EB99FB0FD8E5E4F9FA227818EF2FFFD0
:10083300EE33FEED33FDEC33FCC933C910D7059B12
:10084300E99A4007EC9BFCE99AF90FD8E0E4C9FA6E
:10085300E4CCFB2275F010EF2FFFEE33FEED33FDFA
:10086300CC33CCC833C810D7079BEC9AE899400A1D
:10087300ED9BFDEC9AFCE899F80FD5F0DAE4CDFB9B
:10088300E4CCFAE4C8F922C3E49FFFE49EFEE49DAE
:10089300FDE49CFC22EB9FF5F0EA9E42F0E99D42C9
:1008A300F0EC6480C864809845F022EB9FF5F0EA91
:1008B3009E42F0E99D42F0E89C45F022E8600FEC8F
:1008C300C313FCED13FDEE13FEEF13FFD8F122BBB0
:1008D300010789828A830209F35005E9F80209E7CF
:1008E300BBFE05E9F80209FF89828A830208F2E464
:1008F30093FC740193FD740293FE740393FF22E04F
:10090300F8A3E0F9A3E0FAA3E0FB22E493F874016F
:1009130093F9740293FA740393FB227401FF3395E2
:10092300E0FEFDFCA3A3A3E0CF2FF0E582158270C8
:10093300021583E0CE3EF0E582158270021583E056
:10094300CD3DF0E582158270021583E0CC3CF022A8
:10095300ECF0A3EDF0A3EEF0A3EFF022A8828583E1
:10096300F0D083D082120976120976120976120921
:1009730076E473E493A3C583C5F0C583C8C582C871
:10098300F0A3C583C5F0C583C8C582C822F5F0C5E9
:1009930082A4C582C5F0C583A42583F58322BB0148
:1009A3000789828A83020A145005E9F8020A0BBBFD
:1009B300FE05E9F8020A1D89828A83020A26D0838A
:1009C300D082F8E4937012740193700DA3A393F88B
:1009D300740193F5828883E4737402936860EFA3D0
:1009E300A3A380DFE6FC08E6FD08E6FE08E6FF2297
:1009F300E0FCA3E0FDA3E0FEA3E0FF22E2FC08E2AB
:100A0300FD08E2FE08E2FF22E6FB08E6FA08E6F943
:100A130022E0FBA3E0FAA3E0F922E2FB08E2FA08F2
:100A2300E2F922E493FB740193FA740293F922909E
:100A330002341209539001D6E0FCA3E0FDA3E0FECB
:100A4300A3E0FF900223120953900278E0F8A3E099
:100A5300F9A3E0FAA3E0FBC000C001C002C0039009
:100A630001FFE0F8A3E0F9A3E0FAA3E0FB9002386A
:100A7300E0FCA3E0FDA3E0FEA3E0FF1200A99001C8
:100A8300DAE0F8A3E0F9A3E0FAA3E0FB12019ED0B9
:100A930003D002D001D0001200AD900278120953A6
:100AA3009001E2E0F8A3E0F9A3E0FAA3E0FB9001F0
:100AB300CEE0FCA3E0FDA3E0FEA3E0FF1200A990BB
:100AC30001E6E0F8A3E0F9A3E0FAA3E0FB1200A932
:100AD3009001EE1209539001EAE0FCA3E0FDA3E0CC
:100AE300FEA3E0FF1203BD9001F21209539001EA45
:100AF300E0FCA3E0FDA3E0FEA3E0FF1203BD900131
:100B0300F61209539001D2E0FCA3E0FDA3E0FEA39B
:100B1300E0FF9001FA1209539001DEE0F8A3E0F937
:100B2300A3E0FAA3E0FBC000C001C002C003900130
:100B3300DAE0FCA3E0FDA3E0FEA3E0FF9001EEE01A
:100B4300F8A3E0F9A3E0FAA3E0FB12019ED003D0DF
:100B530002D001D0001200AD9001DE1209539001C2
:100B6300E2E0F8A3E0F9A3E0FAA3E0FBC000C001D0
:100B7300C002C0039001DAE0FCA3E0FDA3E0FEA302
:100B8300E0FF9001F2E0F8A3E0F9A3E0FAA3E0FBB1
:100B930012019ED003D002D001D0001200AD90010B
:100BA300E21209539001E6E0F8A3E0F9A3E0FAA307
:100BB300E0FBC000C001C002C0039001DAE0FCA367
:100BC300E0FDA3E0FEA3E0FF9001F6E0F8A3E0F967
:100BD300A3E0FAA3E0FB12019ED003D002D001D020
:100BE300001200AD9001E61209539001EAE0F8A368
:100BF300E0F9A3E0FAA3E0FBC000C001C002C00318
:100C03009001DAE0FCA3E0FDA3E0FEA3E0FF900186
:100C1300FAE0F8A3E0F9A3E0FAA3E0FB12019ED007
:100C230003D002D001D0001200AD9001EA120953A3
:100C3300900278E0F8A3E0F9A3E0FAA3E0FB9002C6
:100C430034E0FCA3E0FDA3E0FEA3E0FF1200A990C3
:100C530002031209539001FEE0FC1203D89001DE57
:100C6300E0F8A3E0F9A3E0FAA3E0FB12019E9002EF
:100C7300071209539001FEE0FC1203D89001E6E04D
:100C8300F8A3E0F9A3E0FAA3E0FB12019E90020BA4
:100C93001209539001FEE0FC1203D8900207E0F81A
:100CA300A3E0F9A3E0FAA3E0FB12019E9001D6E0D2
:100CB300F8A3E0F9A3E0FAA3E0FB1200AD90020F62
:100CC30012095390020FE0F8A3E0F9A3E0FAA3E0BE
:100CD300FB900207E0FCA3E0FDA3E0FEA3E0FF120C
:100CE30002A790021312095390020FE0F8A3E0F950
:100CF300A3E0FAA3E0FB90020BE0FCA3E0FDA3E07A
:100D0300FEA3E0FF1202A7900217120953900207F5
:100D1300E0FCA3E0FDA3E0FEA3E0FF90021B1209A9
:100D2300539001FEE0FC1203D89001E2E0F8A3E047
:100D3300F9A3E0FAA3E0FB12019E90021F120953EC
:100D43009001DEE0FCA3E0FDA3E0FEA3E0FFC0040E
:100D5300C005C006C00790021BE0FCA3E0FDA3E0B2
:100D6300FEA3E0FF900213E0F8A3E0F9A3E0FAA3E7
:100D7300E0FB12019EA804A905AA06AB07D007D081
:100D830006D005D0041200A99001DE120953900188
:100D9300E2E0FCA3E0FDA3E0FEA3E0FFC004C00586
:100DA300C006C00790021FE0FCA3E0FDA3E0FEA382
:100DB300E0FF900213E0F8A3E0F9A3E0FAA3E0FB5D
:100DC30012019EA804A905AA06AB07D007D006D036
:100DD30005D0041200A99001E21209539001E6E044
:100DE300FCA3E0FDA3E0FEA3E0FFC004C005C00632
:100DF300C00790021BE0FCA3E0FDA3E0FEA3E0FF1D
:100E0300900217E0F8A3E0F9A3E0FAA3E0FB1201D4
:100E13009EA804A905AA06AB07D007D006D005D023
:100E2300041200A99001E61209539001EAE0FCA321
:100E3300E0FDA3E0FEA3E0FFC004C005C006C007B9
:100E430090021FE0FCA3E0FDA3E0FEA3E0FF9002FD
:100E530017E0F8A3E0F9A3E0FAA3E0FB12019EA8D0
:100E630004A905AA06AB07D007D006D005D0041203
:100E730000A99001EA120953900278E0F8A3E0F97F
:100E8300A3E0FAA3E0FBC000C001C002C0039002CC
:100E930003E0FCA3E0FDA3E0FEA3E0FF900213E068
:100EA300F8A3E0F9A3E0FAA3E0FB12019ED003D07C
:100EB30002D001D0001200AD9002781209539001C4
:100EC300FFE0F8A3E0F9A3E0FAA3E0FBC000C00150
:100ED300C002C003A3E0FCA3E0FDA3E0FEA3E0FF88
:100EE300900217E0F8A3E0F9A3E0FAA3E0FB1201F4
:100EF3009ED003D002D001D0001200AD9001FF12AA
:100F030009539001FFE0F8A3E0F9A3E0FAA3E0FBA3
:100F1300900238E0FCA3E0FDA3E0FEA3E0FF120093
:100F2300A990027C02095343BA80E59D602E78FAAA
:100F3300E6FFAD9FC3ED9FFFE49400FE3395E0FD14
:100F4300FC7BE07A287901780012076DE42FFFEE2D
:100F53003451FEED3425FDEC3402802B78FBE6FFA3
:100F6300AD9FC3ED9FFFE49400FE3395E0FDFCE4E9
:100F73007B807ABBF9F812076DE42FFFEE3436FE5F
:100F8300ED346EFDEC3401FC9002341209539002EF
:100F930034E0FCA3E0FDA3E0FEA3E0FFC00790FE66
:100FA30001E0FBE4FAF9F8D0071207F890023412D3
:100FB30009537FC07EF67D577C00900234E0F8A38E
:100FC300E0F9A3E0FAA3E0FBC31208AE50097F00E7
:100FD3007E607D547C00227FC07E267D827C0090D3
:100FE3000234E0F8A3E0F9A3E0FAA3E0FBC312089C
:100FF300AE50097F807E8D7D5B7C00227F807EEDFD
:101003007DAF7C00900234E0F8A3E0F9A3E0FAA3FB
:10101300E0FBC31208AE50097F007EC07DA87C00B0
:10102300227F807E2D7DE87C00900234E0F8A3E0EF
:10103300F9A3E0FAA3E0FBC31208AE50097F007ED8
:101043001B7DB77C00227F807E367D257C0190024C
:1010530034E0F8A3E0F9A3E0FAA3E0FBC31208AE7F
:1010630050097F007E407D197C01227F807E567D62
:10107300417C01900234E0F8A3E0F9A3E0FAA3E095
:10108300FBC31208AE50097F007E2D7D317C012207
:101093007F007EDB7D5F7C01900234E0F8A3E0F902
:1010A300A3E0FAA3E0FBC31208AE50097F007E80E1
:1010B3007D517C01227F607E197D857C0190023405
:1010C300E0F8A3E0F9A3E0FAA3E0FBC31208AE50F3
:1010D300097F007E367D6E7C01227F207EE07DB21B
:1010E3007C01900234E0F8A3E0F9A3E0FAA3E0FB6B
:1010F300C31208AE50097FC07EFC7D9B7C01227F1A
:10110300E07EA67DE07C01900234E0F8A3E0F9A341
:10111300E0FAA3E0FBC31208AE50097F807EC37DD3
:10112300C97C01227F607E2B7DFF7C01900234E02D
:10113300F8A3E0F9A3E0FAA3E0FBC31208AE500959
:101143007F007E407DFA7C01227F607E477D247C88
:1011530002900234E0F8A3E0F9A3E0FAA3E0FBC3B2
:101163001208AE50097FC07E0E7D167C02227F00DE
:101173007E6D7D4A7C02900234E0F8A3E0F9A3E09F
:10118300FAA3E0FBC31208AE50097F007E807D32D4
:101193007C02227F807EDE7D807C02900234E0F838
:1011A300A3E0F9A3E0FAA3E0FBC31208AE50097F62
:1011B300007E5A7D627C02227F807EE77DBD7C02B9
:1011C300900234E0F8A3E0F9A3E0FAA3E0FBC31232
:1011D30008AE5008E4FFFE7DA37C02227F007E6CF4
:1011E3007DDC7C0222900234EFF0A3EDF0A3EBF060
:1011F300A3E0F8A3E0F9A3E0FAA3E0FB900294E0F4
:10120300FCA3E0FDA3E0FEA3E0FF1207F8E47B04E8
:10121300FAF9F81207F8C3E49FFFE49EAD07FC90C8
:101223000234E01470030212C11470030213041495
:10123300700302135D240360030213BA90023BE0C0
:10124300FB7A00640170144398508D8BECF58D4349
:101253008E40D28EE49001CAF08011EB64024A7092
:101263000B4398508DD7ECF5D6438E1553A23F9080
:101273000235E0F9FF7E007008A3E064017002808C
:1012830035EF64024E700D900236E064037005433F
:10129300A2408022E96404700D900236E064057078
:1012A3000543A2808010E96406700B900236E06467
:1012B30007700343A2C0E49001CAF0D2AC229002AB
:1012C3003BE06402700B439A108DD7ECF5D6438E46
:1012D3001453BAFE900235E0FF7E0064087008A341
:1012E300E0640970028011EF640A4E700B900236BD
:1012F300E0640B700343BA0143AF01E49001CBF008
:101303002290023BE0FB7A006402700D439A108D39
:10131300D7ECF5D6438E148011EB64034A700B436C
:10132300AC508DD5ECF5D443D10A53BAFD900235B8
:10133300E0FF7E00640C7008A3E0640D700280116E
:10134300EF640E4E700B900236E0640F700343BAE5
:101353000243AF08E49001CCF02290023BE0FB7A19
:10136300006402700D4384108DD7ECF5D6438E14C0
:101373008011EB64044A700B4384508DD3ECF5D297
:1013830043D1A053BAFB900235E0FF7E0064107096
:1013930008A3E0641170028016EF64124E7010907F
:1013A3000236E064137008F5CA75C90443BA0443EE
:1013B300AF10E49001CDF022BE1249253E4CCCCDB6
:1013C300BEAAAAAB3F8000003E7ADBB03EED633895
:1013D3003F24BC7D3F490FDBED33ECC2E7CC3392B6
:1013E30000B4FF13ED547F60030204787FDB7E0FAC
:1013F3007DC97C3F0214D0C201C3947F401E700795
:10140300EDD2E794904015EFFBEEFAEDF9ECF87F9F
:10141300007E007D807C3F1202A7D201ED33EC33C6
:10142300248430E705E4C0E0806B04FAEDD2E7548E
:10143300F0C333DAFD540734002323C0E0CCC0E00B
:10144300F8EDC0E0F9EEC0E0FAEFC0E0FBE4120310
:10145300D8EC24FEFC90024412095312019E7B0037
:101463007A007980783F1200AD900244E0B2E7CC75
:10147300F0A3E0CDF0A3E0CEF0A3E0CFF0D0E0FB0B
:10148300D0E0FAD0E0F9D0E0F81200AD90024412B7
:1014930009021202A79002441209539013BB74036A
:1014A30012048D90024412090212019ED0E0600FD3
:1014B30024C7F582E43413F58312090E1200AD300C
:1014C300010B7BDB7A0F79C978BF1200ADED33ECEA
:1014D300336006ECA20092E7FC2290023C1209530F
:1014E300900240E0F8A3E0F9A3E0FAA3E0FB900246
:1014F3003CE0FCA3E0FDA3E0FEA3E0FF1202A71281
:1015030013DB90023C120953900240E030E75990FC
:10151300023CE0FCA3E0FDA3E0FEA3E0FFECC0E09F
:10152300EDC0E0EEC0E0EFC0E0E4FFFEFDFC9002A2
:101533003CE0F8A3E0F9A3E0FAA3E0FB1203447B49
:10154300DB600250087A0F7949784080067A0F7978
:101553004978C0D0E0FFD0E0FED0E0FDD0E0FC123F
:1015630000AD90023C12095390023CE0FCA3E0FD65
:10157300A3E0FEA3E0FF2244029400000000420225
:1015830098000042029A00004401CE3A83126F444D
:1015930001D23B449BA64401D642A000004401DA99
:1015A3003AC49BA65001DE3F80000000000000000B
:1015B3000000003F8000005001EE0000000000002A
:1015C300000000000000000000004101FE01440192
:1015D300FF00000000440203000000004C0254001E
:1015E300000000000000000000000044024800006A
:1015F300000048024C00000000000000004C02788C
:10160300000000000000000000000000001219F7B5
:10161300900261E024E2FD900260E034FFFC1203DB
:10162300D37B007A70798078C51202A790023412B6
:101633000953900265E02450FD900264E03400FCFD
:101643001203D37B007A20798078C51202A7900217
:1016530038120953900238E0FCA3E0FDA3E0FEA397
:10166300E0FF900240120953900234E0FCA3E0FD36
:10167300A3E0FEA3E0FF1214DD7B337A33796578B0
:101683004212019E900248120953900248E0FCA3C3
:10169300E0FDA3E0FEA3E0FF22121A3F900268E000
:1016A300FEA3E0FFEE3395E0FDFC900258E0F8A3C3
:1016B300E0F9A3E0FAA3E0FBC3EF9BFFEE9AFEED94
:1016C30099FDEC98FC12088AEC1203CE7B527AB88F
:1016D30079FE783F1202A790024C12095390026AD6
:1016E300E0FEA3E0FFEE3395E0FDFC90025CE0F842
:1016F300A3E0F9A3E0FAA3E0FBC3EF9BFFEE9AFE9E
:10170300ED99FDEC98FC12088AEC1203CE7B307A3B
:10171300BB790378401202A79002501209537B0150
:101723007A02794C22787FE4F6D8FD75812002177E
:101733006F0217B4E493A3F8E493A34003F6800184
:10174300F208DFF48029E493A3F85407240CC8C3F8
:1017530033C4540F4420C8834004F456800146F632
:10176300DFE4800B010204081020408090157AE426
:101773007E019360BCA3FF543F30E509541FFEE490
:1017830093A360010ECF54C025E060A840B8E49352
:10179300A3FAE493A3F8E493A3C8C582C8CAC58394
:1017A300CAF0A3C8C582C8CAC583CADFE9DEE78019
:1017B300BE90022812095F00000000782C7C027D95
:1017C300017BFF7A1C79177E007F081205AA12009D
:1017D3005E1218AC12007A12190890023712095FD0
:1017E3000001C20090023B7401F0FBE4FDFF121103
:1017F300E812161090022812095312169C782C7CBA
:10180300027D017E007F081205AA78387C027D01E3
:101813007B017A02792C7E007F081205AA900228A8
:10182300E0FCA3E0FDA3E0FEA3E0FF120A327F6425
:101833007E0012002680BAE47B107A27F9F8900222
:1018430094E0FCA3E0FDA3E0FEA3E0FF1207F89001
:101853000298EEF0A3EFF07B407A42790F78009084
:101863000294E0FCA3E0FDA3E0FEA3E0FF1207F86F
:10187300EF24FEFFEE34FF90029AF0A3EFF07F0017
:101883007E1B7DB77C00900294E0F8A3E0F9A3E00F
:10189300FAA3E0FBD31208AE500E90029BE004F0D3
:1018A300700690029AE004F02243FF10120F2A9070
:1018B300029412095312183AE4F594F593F592F54C
:1018C30091F596F595F5B2F5B1F5B4F5B3F5CAF51D
:1018D300C9F5CCF5CBF5E2F5E1F5DEF58EF598F536
:1018E3009AF5ACF584F5A2F5BAF5AFF58990023710
:1018F30012095F0001C20090023B7402F07B01E415
:10190300FDFF0211E81200667D807F6B1200467FA7
:10191300027E001200267B017A0279347F6B121C4F
:1019230008900234E0644170ED7D017F6B12004644
:101933001D7F6C1200460D7F1A1200467D077F192A
:101943001200467D187F1B1200467D107F1C12007B
:10195300467D037F1D020046C0E0C083C082C0D025
:1019630075D000C007E59830E1085398FD9001CA8F
:10197300E4F0E59830E0255398FEAF99EF647F706B
:101983001690029CE0FF04F0D3EF941474809480CB
:10199300400A75C760800590029CE4F0D007D0D060
:1019A300D082D083D0E032E4900227F0D2A0C2A14B
:1019B300C2A0D2A1D2A0C2A1F0900227E0C394801A
:1019C300748094805027C2A07D027F0D121B499022
:1019D3000227E025E02401F582E43400F583EEF0EC
:1019E300A3EFF0D2A0900227E004F080CC90000097
:1019F3007401F0227B017A02793C9002467406F06E
:101A03007F3B121ACB90023CE0FEA3E0FDEDFF907A
:101A13000260EEF0A3EFF090023EE0FEA3E0FDEDE6
:101A2300FF900262EEF0A3EFF0900240E0FEA3E02D
:101A3300FDEDFF900264EEF0A3EFF0227B017A024A
:101A430079349002467406F07F43121ACB90023425
:101A5300E0FEA3E0FDEDFF900266EEF0A3EFF09051
:101A63000236E0FEA3E0FDEDFF900268EEF0A3EF87
:101A7300F0900238E0FEA3E0FDEDFF90026AEEF085
:101A8300A3EFF022C2D5E830E70FB2D5E4C39BFB46
:101A9300E49AFAE499F9E498F8EC30E717B2D5122E
:101AA3001ABD1207F8E4C39BFBE49AFAE499F9E43C
:101AB30098F880031207F830D50DE4C39FFFE49E26
:101AC300FEE49DFDE49CFC22900243EBF0A3EAF0CC
:101AD300A3E9F0121B7AE4FDFC900246E0FFC3ED9C
:101AE3009FEC9400501FE4FF121B80900243E0FB25
:101AF300A3E0FAA3E0F98D828C83EF12064A0DBDB1
:101B030000010C80D4D2A722C0E0C0F0C083C08201
:101B1300C0D075D000C000C001C002C003C004C063
:101B230005C006C00753EFFB1219AAD007D006D091
:101B330005D004D003D002D001D000D0D0D082D0C1
:101B430083D0F0D0E032A90553BCF0EF42BC43BCD4
:101B530040E5BC30E5FB53BCDFAFBDEFFEADBEEDF2
:101B6300FFE4F5BDF5BEAD01EFA805088005CEC3C2
:101B730013CE13D8F9FF22C2A7EF4480FFE4FEEE91
:101B8300C39408748094805015EF3392A3EF25E03B
:101B9300FFC2A5D2A5A2A4E4334FFF0E80E122C069
:101BA300E0C083C082E59A30E108539AFD9001CBEF
:101BB300E4F0E59A30E003539AFED082D083D0E07C
:101BC30032C0E0C083C082E5AC30E10853ACFD9085
:101BD30001CCE4F0E5AC30E00353ACFED082D0831B
:101BE300D0E032C0E0C083C082E58430E108538492
:101BF300FD9001CDE4F0E58430E0035384FED08210
:101C0300D083D0E032121B7AE4FF121B80EF12065E
:0C1C130038D2A7220000000000000000F2
:00000001FF
